:100000004830840070300A128A110B200A128A11BB
:100010000A128A11132864008001840A0406031955
:10002000003404060C280030F0000030F10003100A
:100030000030031801308500031000300318013030
:1000400086000310003003180130870003100030D1
:1000500003180130880003100030031801308900B4
:1000600011308316031385000F308600933087000C
:10007000031000300318013088000310003003180B
:100080000130890083120313971517158316031384
:10009000FF309200831203139214121003100030E9
:1000A00003180130950012158312031306185928FE
:1000B0005A287028061286161508FF3A0319612877
:1000C00062286F280130F200720895071E30F30095
:1000D0000030F4000A128A11E6270A128A118528D4
:1000E0008618732874288528061286169508031D1D
:1000F0007A288528013095021E30F3000030F40084
:100100000A128A11E6270A128A115428872886289B
:060110000A128A1100280A
:100FCC00EF2F0730F6007D30F500F50BEB2FF60B0D
:100FDC00EB2F0130F3020030031CF403F402FF305A
:100FEC007406031DFB2FFF307306031DFE2FFF2F0E
:040FFC00E72F0800D3
:02400E00323F3F
:00000001FF
